:020000020000FC
:040000000C9422003A
:040010000C94470104
:100040000C9441010FEF0DBF08E00EBF3F065B4F60
:10005000666D7D077F6FF89400E0009300010093C8
:100060000101009302010093030100930401009336
:100070000501009307010093090101E000930601C7
:1000800000930801ECE4F0E004E600930A0110E0BC
:1000900020E050E000E80093610004E0009361007C
:1000A00001E005BD00910A0106BD01E000936E006C
:1000B00003E00093680000E200936B0007E0009308
:1000C0006C000FEF0AB900E00BB93B9A43983C9AD9
:1000D000449825982D9A3898409A3998419A3A9898
:1000E000429A209A289A229A2A9A239A2B9A249AF8
:1000F0002C9A219A29983D9A459804910BB97894A5
:100100002233B9F12436B9F11030B9F0113039F198
:10011000123031F1133041F1143039F1F1CF289818
:100120002A982B982C982C9A40FF0091050140FDAD
:10013000009107010E94EA000BC04498439A40E0F6
:100140005030F1F0513051F15230B1F1533039F3B8
:10015000543069F02436A1F6222744C0D1CFD0CF45
:10016000449A439841E0ECCFCBCF439AC9CF50E0BB
:10017000F1CF299AC7CF2998C7CFECE4F0E00895D2
:1001800028982A982B982C98289A40FF00910201D1
:1001900040FD009108010E94EA00D4CF28982A98D7
:1001A0002B982C982A9A40FF0091030140FD009162
:1001B00009010E94EA00C8CF28982A982B982C9809
:1001C0002B9A40FF0091040140FD009106010E941E
:1001D000EA00BCCFE00F00E0F01F04910BB90E94D1
:1001E000BD00089500910001093021F003950093AE
:1001F000000186CF00270093000100910101053026
:1002000021F00395009301017BCF002700930101AA
:1002100000910201093021F003950093020170CF93
:1002200000270093020100910301053021F003959E
:100230000093030165CF002700930301009105019E
:10024000023041F000910401093061F00395009300
:10025000040156CF00910401033069F00395009327
:1002600004014ECF0027009304010091050103957E
:100270000093050145CF0027009305010093040179
:100280003FCF539500910A0106BD23951895329BE7
:1002900007C0319B0BC0309B0AC01D9B09C018953D
:1002A0001395153009F0189511271895189518957C
:0202B00018959F
:00000001FF
