:020000020000FC
:040000000C9422003A
:040010000C948C02BE
:040024000C948102B5
:100040000C947C020FEF0DBF08E00EBF3F065B4F24
:10005000666D7D077F6FF89400E0009300010093C8
:100060000101009302010093030100930401009336
:100070000501009307010093090100930B01009310
:100080000C0100930D0100930E0101E000930601A5
:1000900000930801ECE4F0E004E600930A0110E0AC
:1000A00020E050E000E80093610004E0009361006C
:1000B00001E005BD00910A0106BD02E00093B10018
:1000C00000910A010093B20001E000936E0001E08C
:1000D0000093700002E0009368000FE000936C0052
:1000E0000FEF0AB900E00BB93C9A44983D9A459845
:1000F0003898409A3998419A3A98429A3B98439A4C
:10010000209A289A229A2A9A239A2B9A249A2C9AED
:10011000219A2998259A2D9804910BB978946D37D6
:1001200081F06A3F81F0103081F0113039F11230E6
:1001300029F0133021F0143019F0F1CFBEC0C6C041
:10014000CDC0299AEECF2998EECF4498459A40E049
:10015000503079F0513071F0523069F0533061F025
:1001600000910E01013049F0223039F4222702C1FA
:10017000D6CFC0C0CDC0DAC0E7C0D1CF4498459A31
:1001800000910E0101E000930E0100910C0100FDB1
:1001900005C000910D0100FD09C0DACF00910C01EE
:1001A000002700930C01403049F0B9CF00910D01B8
:1001B000002700930D01403039F0B1CF00910B01C1
:1001C00000FF08C000FD1DC000910B0100FF3CC0F6
:1001D00000FD4FC00091020103950A3019F0009311
:1001E0000201D7CF0027009302010091030103957C
:1001F000063019F000930301CCCF002700930301D0
:10020000C8CF00910501023041F00091040103952F
:100210000A3059F000930401BCCF0091040103950A
:10022000053061F000930401B4CF0027009304016E
:1002300000910501039500930501ABCF00270093C2
:10024000050100930401A5CF009102010A950F3F1B
:1002500019F0009302017CCF09E0009302010091A4
:1002600003010A950F3F49F273CF06E000930301A3
:100270006FCF00910501003041F0009104010A9513
:100280000F3F59F00093040163CF009104010A95D8
:100290000F3F61F0009304015BCF09E0009304017C
:1002A000009105010A950093050152CF02E00093E9
:1002B000050104E0009304014BCF449A459841E0C6
:1002C00000910E01002700930E0142CF449A4598F9
:1002D00000910E0101E000930E0121CF449A459A4E
:1002E00000910E0100E000930E01459A18CFECE456
:1002F000F0E0089528982A982B982C98289A40FF87
:100300000091020140FD009108010E94B20122CF3C
:1003100028982A982B982C982A9A40FF009103013C
:1003200040FD009109010E94B20116CF28982A9839
:100330002B982C982B9A40FF0091040140FD0091CE
:1003400006010E94B2010ACF28982A982B982C986F
:100350002C9A40FF0091050140FD009107010E9489
:10036000B201FECEE00F00E0F01F04910BB90E9435
:100370007701089500910001093021F00395009361
:100380000001CDCE0027009300010091010105304E
:1003900021F0039500930101C2CE002700930101D3
:1003A00000910201093021F0039500930201B7CEBC
:1003B00000270093020100910301053021F003950D
:1003C00000930301ACCE00270093030100910501C7
:1003D000023041F000910401093061F0039500936F
:1003E00004019DCE00910401033069F00395009350
:1003F000040195CE002700930401009105010395A7
:10040000009305018CCE00270093050100930401A1
:10041000009109010130A9F0009108010130D1F0EB
:10042000023011F10330B1F00430C9F0053091F021
:100430000630A9F0073071F0083061F0093079F02A
:100440006ECE00910801003029F0013041F00230F9
:1004500081F065CE009107010330B9F00EC0009124
:1004600007010330B9F009C0009107010230B9F06B
:1004700004C0009107010330B9F000910601093072
:10048000D9F00395009306014ACE00910601013090
:10049000E1F00EC0009106010030B9F009C00091F2
:1004A0000601083091F004C0009106010130C9F046
:1004B00003950093060133CE0027009306010091B7
:1004C00007010395009307012ACE01E0009306017E
:1004D000002700930701009108010395009308018C
:1004E0001ECE0027009309010093070101E000934D
:1004F00008010093060113CE70910A0176BD239581
:1005000018955395543031F0639570910A017093AA
:10051000B200189550E0F8CF339B07C0329B25C03E
:10052000319B16C0309B07C018951395153009F004
:10053000189511271895113029F0133019F014303F
:1005400009F0189500910C01039500930C01189582
:10055000113029F0133019F0143009F0189500917A
:100560000D01039500930D011895113029F01330FA
:1005700019F0143009F0189500910B0103950093C0
:040580000B011895BE
:00000001FF
