:020000020000FC
:040000000C9422003A
:040010000C94C70184
:040024000C94BC017B
:100040000C94B7010FEF0DBF08E00EBF3F065B4FEA
:10005000666D7D077F6FF89400E0009300010093C8
:100060000101009302010093030100930401009336
:100070000501009307010093090101E000930601C7
:1000800000930801ECE4F0E004E600930A0110E0BC
:1000900020E050E000E80093610004E0009361007C
:1000A00001E005BD00910A0106BD02E00093B10028
:1000B00000910A010093B20001E000936E0001E09C
:1000C0000093700002E0009368000FE000936C0062
:1000D0000FEF0AB900E00BB93C9A44983D9A459855
:1000E0003898409A3998419A3A98429A3B98439A5C
:1000F000209A289A229A2A9A239A2B9A249A2C9AFE
:10010000219A2998259A2D9804910BB978946D37E6
:1001100099F16A3F99F11030B9F0113029F112309C
:1001200021F1133031F1143029F1F1CF28982A98B8
:100130002B982C982C9A40FF0091050140FD0091CE
:1001400007010E94ED000BC04498459A40E05030F2
:10015000D1F0513031F1523091F1533039F3223036
:10016000B1F6222742C0D3CFD2CF449A459841E07E
:10017000EECFCDCF459ACBCF299ACBCF2998CBCFF5
:10018000ECE4F0E0089528982A982B982C98289A67
:1001900040FF0091020140FD009108010E94ED0026
:1001A000D8CF28982A982B982C982A9A40FF00910B
:1001B000030140FD009109010E94ED00CCCF289879
:1001C0002A982B982C982B9A40FF0091040140FD0F
:1001D000009106010E94ED00C0CFE00F00E0F01F8B
:1001E00004910BB90E94C0000895009100010930EC
:1001F00021F00395009300018ACF002700930001AE
:1002000000910101053021F00395009301017FCF9A
:1002100000270093010100910201093021F00395AC
:100220000093020174CF00270093020100910301A3
:10023000053021F003950093030169CF0027009357
:10024000030100910501023041F0009104010930E1
:1002500061F00395009304015ACF0091040103302B
:1002600069F003950093040152CF00270093040125
:100270000091050103950093050149CF00270093E4
:10028000050100930401009109010130A9F00091DA
:1002900008010130D1F0023011F10330B1F0043027
:1002A000C9F0053091F00630A9F0073071F0083040
:1002B00061F0093079F02BCF00910801003029F06E
:1002C000013041F0023081F022CF0091070103306C
:1002D000B9F00EC0009107010330B9F009C00091D8
:1002E00007010230B9F004C0009107010330B9F0F2
:1002F000009106010930D9F003950093060107CF5C
:10030000009106010130E1F00EC0009106010030BD
:10031000B9F009C000910601083091F004C00091C5
:1003200006010130C9F0039500930601F0CE0027C5
:100330000093060100910701039500930701E7CEA2
:1003400001E00093060100270093070100910801D6
:10035000039500930801DBCE002700930901009369
:10036000070101E00093080100930601D0CE7091CF
:100370000A0176BD239518955395543031F0639555
:1003800070910A017093B200189550E0F8CF339B3A
:1003900007C0329B0DC0319B0AC0309B07C0189527
:1003A0001395153009F0189511271895189518957B
:0203B00018959E
:00000001FF
