:020000020000FC
:040000000C9422003A
:040010000C94330118
:100040000C942D010FEF0DBF08E00EBF3F065B4F74
:10005000666D7D077F6FF89400E0009300010093C8
:100060000101009302010093030100930401009336
:100070000501009306010093070100930801009316
:100080000901ECE4F0E004E600930A0110E020E04E
:1000900050E000E80093610004E00093610001E09B
:1000A00005BD00910A0106BD01E000936E0003E06A
:1000B0000093680007E000936C0000E200936B007F
:1000C0000FEF0AB900E005B93B9A4398249A2B98A0
:1000D00025982D9A3898409A3998419A3A98429A98
:1000E000209A289A229A2A9A239A2B9A249A2C9A0E
:1000F000219A29983D9A459804910BB97894223316
:1001000031F1243631F1103041F01130B9F01230B4
:10011000B1F01330B9F01430B1F04498439A503034
:10012000E9F0513029F1523069F15330A9F15430DE
:1001300061F0223021F7222741C0E1CFE0CF449A7D
:100140004398DDCFDCCF439ADACF50E0F2CF299A43
:10015000D8CF2998D8CFECE4F0E0089528982A98D1
:100160002B982C98289A009102010E94D600D9CF92
:1001700028982A982B982C982A9A009103010E947B
:10018000D600D1CF28982A982B982C982B9A00919A
:1001900004010E94D600CBCF28982A982B982C983F
:1001A0002C9A009105010E94D600A9CFE00F00E033
:1001B000F01F04910BB90E94AB000895009100015B
:1001C000093021F003950093000199CF0027009397
:1001D000000100910101053021F003950093010118
:1001E0008ECF00270093010100910201093021F018
:1001F00003950093020183CF002700930201009131
:100200000301053021F003950093030178CF002707
:100210000093030100910501023041F000910401B7
:10022000093061F003950093040169CF0091040146
:10023000033069F003950093040161CF0027009318
:1002400004010091050103950093050158CF002793
:10025000009305010093040152CF539500910A01C8
:1002600006BD239518951D9B01C018951395123056
:0802700009F0189511271895FB
:00000001FF
