:020000020000FC
:040000000C9422003A
:040010000C9420012B
:100040000C9419010FEF0DBF08E00EBF3F065B4F88
:10005000666D7D077F6FF89400E0009300010093C8
:100060000101009302010093030100930401009336
:100070000501009306010093070100930801009316
:100080000901ECE4F0E004E600930A0110E020E04E
:1000900000E0E02EF02E00E80093610004E0009301
:1000A000610003E005BD00910A0106BD01E0009377
:1000B0006E0003E00093680007E000936C0000E22C
:1000C00000936B000FEF0AB900E005B93B9A439823
:1000D000249A2B9825982D9A3898409A3998419AC5
:1000E0003A98429A209A289A229A2A9A239A2B9AE4
:1000F000249A2C9A219A29983D9A459804910BB9F3
:100100007894E0FC0E949A00E0FE0E94A400E0FCCB
:100110000E94AE00E0FE0E94B800223331F0243687
:1001200081F72998222736C0ECCF299AEACFECE450
:10013000F0E0089528982A982B982C98289A0091F6
:1001400002010E94C200089528982A982B982C98A2
:100150002A9A009103010E94C200089528982A98C3
:100160002B982C982B9A009104010E94C2000895AC
:1001700028982A982B982C982C9A009105010E9477
:10018000C2000895E00F00E0F01F04910BB90E9437
:1001900097000895009100010A3021F00395009323
:1001A0000001AFCF0027009300010091010105304D
:1001B00021F0039500930101A4CF002700930101D2
:1001C000009102010A3021F003950093020199CFBA
:1001D00000270093020100910301053021F00395EF
:1001E000009303018ECF00270093030100910501C6
:1001F000023041F0009104010A3061F00395009350
:1002000004017FCF00910401043069F0039500934D
:10021000040177CF002700930401009105010395A5
:10022000009305016ECF00270093050100930401A0
:1002300068CFE394F39440910A0146BD2395189545
:0202400018950F
:00000001FF
