:020000020000FC
:040000000C9422003A
:040010000C94B20496
:040024000C94AB0489
:100040000C94A5040FEF0DBF08E00EBF3F065B4FF9
:10005000666D7D077F6FF89400E0009300010093C8
:100060000101009302010093030100930401009336
:100070000501009307010093090100930F0100930C
:100080001001009311010093120100930B010093E2
:100090000C0100930D0100930E0101E00093060195
:1000A00000930801ECE4F0E00027C02ED02EE02EF3
:1000B000F02E04E600930A0110E020E050E080E01A
:1000C000A0E000E80093610004E00093610003E019
:1000D00005BD00910A0106BD02E00093B10001E0F8
:1000E00000936E0001E00093700002E0009368004E
:1000F0000FE000936C000FEF0AB900E00BB93C9AD7
:1001000044983D9A45983898409A3998419A3A9837
:10011000429A3B98439A209A289A229A2A9A239A9A
:100120002B9A249A2C9A219A2998259A2D980491F1
:100130000BB978940E94AB00103011F1113039F0F6
:10014000123031F0133029F0143021F0F3CF66C0B3
:10015000C4C2CDC2D4C2A0FD0E94B200A0FF0E94C2
:10016000B700089567FF08C067FD08C00895F6FE50
:1001700003C0F6FC03C00895299A089529980895AC
:100180004498459A00910E01002700930E0140E02B
:1001900090E0503089F0513081F0523079F0533096
:1001A00071F000910E01013059F00A2F013049F031
:1001B000243631F4222707C3AAC2BEC2D2C2E6C285
:1001C000B9CF00910501E09012010E1509F0F0CFB2
:1001D00000910401E09011010E1509F0E9CF0091A2
:1001E0000301E09010010E1509F0E2CF0091020129
:1001F000E0900F010E1509F0DBCF2D9A01E0D02E13
:100200000C2D013009F0F9CF0027C02EA02F2D981A
:1002100000910201039500930201CACF449867FD43
:10022000459A67FF459840E090E000910E0101E09B
:1002300000930E0100910C0100FD05C000910D011D
:1002400000FD0DC0A6CF00910C01002700930C010A
:10025000403089F04130D9F0423069F06BCF0091E5
:100260000D01002700930D01403059F04130A9F0F5
:10027000423039F05FCF00910B0100FF14C000FD48
:1002800041C000910B0100FF88C000FDB5C0009186
:100290000B0100FFFDC000FD1FC100910B0100FF1D
:1002A000F6C100FD18C290FF0091020190FD00917F
:1002B0000F0103950A3039F090FD00930F0190FF74
:1002C00000930201BBCF002790FD00930F0190FF28
:1002D0000093020190FF0091030190FD0091100135
:1002E0000395063039F090FD0093100190FF0093C4
:1002F0000301A4CF002790FD0093100190FF00930D
:1003000003019CCF90FF0091050190FD0091120127
:10031000023081F090FF0091040190FD00911101E5
:1003200003950A30B9F090FD0093110190FF0093FE
:10033000040184CF90FF0091040190FD0091110110
:1003400003950530E1F090FD0093110190FF0093BB
:10035000040174CF002790FD0093110190FF0093DA
:10036000040190FF0091050190FD00911201039599
:1003700090FF0093050190FD009312015FCF0027CD
:1003800090FD0093120190FF0093050190FD0093F2
:10039000110190FF0093040151CF90FF00910201E1
:1003A00090FD00910F010A950F3F39F090FD0093E9
:1003B0000F0190FF00930201ECCE09E090FD009345
:1003C0000F0190FF0093020190FF0091030190FD47
:1003D000009110010A950F3F39F090FD0093100134
:1003E00090FF00930301D5CE05E090FD009310012E
:1003F00090FF00930301CDCE90FF0091050190FD89
:1004000000911201003081F090FF0091040190FDF5
:10041000009111010A950F3FB9F090FD0093110171
:1004200090FF00930401B5CE90FF0091040190FD70
:10043000009111010A950F3FE1F090FD0093110129
:1004400090FF00930401A5CE09E090FD00931101F7
:1004500090FF0093040190FF0091050190FD009131
:1004600012010A9590FF0093050190FD009312017F
:1004700090CE02E090FD0093120190FF00930501E1
:1004800004E090FD0093110190FF0093040181CEE0
:1004900000910901013041F00091080103950A30F3
:1004A00059F000930801CACE00910801039503306A
:1004B00061F000930801C2CE00270093080100916B
:1004C0000901039500930901B9CE002700930901A2
:1004D00001E000930801B2CE8827009109010130A4
:1004E000A9F0009108010130D1F0023011F1033080
:1004F000B1F00430C9F0053091F00630A9F00730B2
:1005000071F0083061F0093079F014CE00910801E3
:10051000003029F0013041F0023009F00BCE80FFAD
:100520000DC080FD59C006CE80FF23C080FD70C085
:1005300001CE80FF32C080FD86C0FCCD0091070156
:10054000033041F00091060103950A30E1F1009378
:10055000060174CE009106010395023019F0009354
:1005600006016CCE00270093070101E0009306010D
:1005700065CE00910701033041F00091060103951B
:100580000A3009F10093060159CE00910601039546
:10059000013040F70093060151CE0091070102306F
:1005A00051F00330B9F20091060103950A3059F079
:1005B0000093060143CE009106010395093091F2A4
:1005C000009306013BCE002700930601009107012E
:1005D00003950093070132CE00910701003049F0E6
:1005E000009106010A950F3F19F000930601D1CD45
:1005F00045C0009106010A95003019F000930601EC
:10060000C8CD03E00093070101E000930601C1CDCE
:1006100000910701003041F0009106010A95003079
:1006200069F100930601B5CD009106010A950030ED
:1006300019F000930601ADCD03E00093070100E03F
:1006400000930601A6CD00910701003041F0009112
:1006500006010A95003091F0009306019ACD0091B1
:1006600006010A95003019F00093060192CD02E0D0
:100670000093070108E0009306018BCD09E0009389
:100680000601009107010A950093070182CD0091B0
:100690000901003041F0009108010A95003059F03D
:1006A0000093080176CD009108010A95003061F0B1
:1006B000009308016ECD09E0009308010091090143
:1006C0000A950093090165CD01E00093090102E05C
:1006D000009308015ECD81E000CF449A459841E047
:1006E00090E000910E01002700930E0152CD459835
:1006F00067FD449A67FF449841E097CD1BCD449A2B
:10070000459A91E042E091CDECE4F0E0089528981C
:100710002A982B982C98289A90FD00910F0190FF11
:100720000E9495030E94DB0336CD40FF0091020139
:1007300040FD00910801089528982A982B982C983C
:100740002A9A90FD0091100190FF0E94AA030E9436
:10075000DB0323CD40FF0091030140FD009109011F
:10076000089528982A982B982C982B9A90FD009100
:10077000110190FF0E94BF030E94DB0310CD40FFD8
:100780000091040140FD00910601089528982A98DF
:100790002B982C982C9A90FD0091120190FF0E94AA
:1007A000D4030E94DB03FDCC40FF0091050140FD16
:1007B000009107010895E00F00E0F01F04910BB9CC
:1007C0000E948403089500910001093021F00395EF
:1007D00000930001AFCC00270093000100910101BC
:1007E000053021F0039500930101A4CC002700936C
:1007F000010100910201093021F0039500930201EB
:1008000099CC00270093020100910301053021F0EB
:100810000395009303018ECC002700930301009100
:100820000501023041F000910401093061F00395A7
:10083000009304017FCC00910401033069F003951B
:100840000093040177CC0027009304010091050177
:100850000395009305016ECC0027009305010093DA
:100860000401009109010130A9F000910801013053
:10087000D1F0023011F10330B1F00430C9F005308D
:1008800091F00630A9F0073071F0083061F00930BE
:1008900079F050CC00910801003029F0013041F08E
:1008A000023081F047CC009107010330B9F00EC04F
:1008B000009107010330B9F009C00091070102302F
:1008C000B9F004C0009107010330B9F000910601AE
:1008D0000930D9F00395009306012CCC0091060154
:1008E0000130E1F00EC0009106010030B9F009C0FE
:1008F00000910601083091F004C00091060101301A
:10090000C9F003950093060115CC0027009306015A
:10091000009107010395009307010CCC01E00093BF
:100920000601002700930701009108010395009339
:10093000080100CC0027009309010093070101E0A2
:100940000093080100930601F5CB70910A0176BD72
:100950002395F39418955395543011F06395189599
:1009600050E0FCCF339B07C0329B30C0319B21C08D
:10097000309B07C018951395153009F0189511276D
:100980001895103049F0113071F0123029F0133001
:1009900051F0143041F018950D2D013009F01895E3
:1009A00001E0C02E189500910C01039500930C01F5
:1009B0001895113029F0133019F0143009F01895FA
:1009C00000910D01039500930D011895103049F029
:1009D000113069F0123029F0133049F0143039F039
:1009E0001895A395A23009F01895AA27189500919B
:0A09F0000B01039500930B0118950D
:00000001FF
