:020000020000FC
:040000000C9422003A
:040010000C94BA048E
:040024000C94B30481
:100040000C94AD040FEF0DBF08E00EBF3F065B4FF1
:10005000666D7D077F6FF89400E0009300010093C8
:100060000101009302010093030100930401009336
:100070000501009307010093090100930F0100930C
:100080001001009311010093120100930B010093E2
:100090000C0100930D0100930E0101E00093060195
:1000A00000930801ECE4F0E00027C02ED02EE02EF3
:1000B000B02EF02EA02E04E600930A0110E020E0FE
:1000C00050E070E090E000E80093610004E00093ED
:1000D000610003E005BD00910A0106BD02E0009346
:1000E000B10001E000936E0001E00093700002E0B7
:1000F000009368000FE000936C000FEF0AB900E076
:100100000BB93C9A44983D9A45983898409A39984A
:10011000419A3A98429A3B98439A209A289A229A6E
:100120002A9A239A2B9A249A2C9A219A2998259ACA
:100130002D9804910BB978940E94AD00103011F104
:10014000113039F0123031F0133029F0143021F031
:10015000F3CF69C0C8C2D2C2D9C290FD0E94B40018
:1001600090FF0E94B9000895A7FE08C0A7FC08C030
:100170000895F6FE03C0F6FC03C00895299A089579
:10018000299808954498459A00910E0100270093FC
:100190000E0140E080E0503081F0513079F0523073
:1001A00071F0533069F000910E01013051F091303F
:1001B00049F0243631F422270EC3B1C2C5C2D9C2D8
:1001C000EDC2BACFB0900501E0901201BE1409F063
:1001D000F0CFB0900401E0901101BE1409F0E9CF16
:1001E000B0900301E0901001BE1409F0E2CFB0908E
:1001F0000201E0900F01BE1409F0DBCFB0900201C4
:10020000E0900F01BE1409F0D4CF2D9A01E0D02E5A
:100210000C2D013009F0F9CF0027C02E99272D9819
:100220000027D02EC6CF4498A7FC459AA7FE459834
:1002300040E080E0992700910E0101E000930E015B
:1002400000910C0100FD05C000910D0100FD0DC0E5
:10025000A2CF00910C01002700930C01403089F0DF
:100260004130D9F0423069F067CF00910D0100278D
:1002700000930D01403059F04130A9F0423039F07F
:100280005BCF00910B0100FF14C000FD41C0009145
:100290000B0100FF88C000FDB5C000910B0100FFFD
:1002A000FDC000FD1FC100910B0100FFF6C100FD64
:1002B00018C280FF0091020180FD00910F0103959B
:1002C0000A3039F080FD00930F0180FF0093020196
:1002D000BBCF002780FD00930F0180FF0093020138
:1002E00080FF0091030180FD00911001039506300D
:1002F00039F080FD0093100180FF00930301A4CF2B
:10030000002780FD0093100180FF009303019CCF24
:1003100080FF0091050180FD00911201023081F003
:1003200080FF0091040180FD0091110103950A30C6
:10033000B9F080FD0093110180FF0093040184CF88
:1003400080FF0091040180FD0091110103950430AC
:10035000E1F080FD0093110180FF0093040174CF50
:10036000002780FD0093110180FF0093040180FFAE
:100370000091050180FD00911201039580FF00931B
:10038000050180FD009312015FCF002780FD0093DF
:10039000120180FF0093050180FD0093110180FF91
:1003A0000093040151CF80FF0091020180FD009174
:1003B0000F010A950F3F39F080FD00930F0180FF78
:1003C00000930201E8CE09E080FD00930F0180FF59
:1003D0000093020180FF0091030180FD0091100154
:1003E0000A950F3F39F080FD0093100180FF0093C4
:1003F0000301D1CE05E080FD0093100180FF009342
:100400000301C9CE80FF0091050180FD009112011A
:10041000003081F080FF0091040180FD0091110106
:100420000A950F3FB9F080FD0093110180FF009302
:100430000401B1CE80FF0091040180FD0091110103
:100440000A950F3FE1F080FD0093110180FF0093BA
:100450000401A1CE09E080FD0093110180FF00930B
:10046000040180FF0091050180FD009112010A95B1
:1004700080FF0093050180FD009312018CCE02E005
:1004800080FD0093120180FF0093050103E080FDD1
:100490000093110180FF009304017DCE00910901BA
:1004A000013041F00091080103950A3059F00093A2
:1004B0000801CACE009108010395033061F0009352
:1004C0000801C2CE0027009308010091090103959D
:1004D00000930901B9CE00270093090101E00093C0
:1004E0000801B2CE7727009109010130A9F00091EF
:1004F00008010130D1F0023011F10330B1F00430C5
:10050000C9F0053091F00630A9F0073071F00830DD
:1005100061F0093079F010CE00910801003029F027
:10052000013041F0023009F007CE70FF0DC070FDC0
:1005300059C002CE70FF23C070FD70C0FDCD70FFAA
:1005400032C070FD86C0F8CD00910701033041F044
:100550000091060103950A30E1F10093060174CE83
:10056000009106010395023019F0009306016CCE4C
:1005700000270093070101E00093060165CE00917A
:100580000701033041F00091060103950A3009F19B
:100590000093060159CE009106010395013040F702
:1005A0000093060151CE00910701023051F0033053
:1005B000B9F20091060103950A3059F00093060143
:1005C00043CE009106010395093091F20093060194
:1005D0003BCE00270093060100910701039500938D
:1005E000070132CE00910701003049F00091060169
:1005F0000A950F3F19F000930601CDCD45C000913B
:1006000006010A95003019F000930601C4CD03E0FD
:100610000093070101E000930601BDCD00910701A1
:10062000003041F0009106010A95003069F1009315
:100630000601B1CD009106010A95003019F0009332
:100640000601A9CD03E00093070100E00093060135
:10065000A2CD00910701003041F0009106010A95FA
:10066000003091F00093060196CD009106010A95A5
:10067000003019F0009306018ECD02E000930701CF
:1006800008E00093060187CD09E000930601009180
:1006900007010A95009307017ECD00910901003002
:1006A00041F0009108010A95003059F000930801CB
:1006B00072CD009108010A95003061F000930801A5
:1006C0006ACD09E000930801009109010A950093A1
:1006D000090161CD01E00093090102E000930801E6
:1006E0005ACD71E000CF449A459841E080E00091F6
:1006F0000E01002700930E0199274DCD4598A7FCC8
:10070000449AA7FE449841E0992795CD449A459A8A
:1007100081E042E099278FCDECE4F0E0089528983D
:100720002A982B982C98289A80FD00910F0180FF21
:100730000E949D030E94E30330CD40FF009102011F
:1007400040FD00910801089528982A982B982C982C
:100750002A9A80FD0091100180FF0E94B2030E943E
:10076000E3031DCD40FF0091030140FD009109010D
:10077000089528982A982B982C982B9A80FD009100
:10078000110180FF0E94C7030E94E3030ACD40FFCE
:100790000091040140FD00910601089528982A98CF
:1007A0002B982C982C9A80FD0091120180FF0E94BA
:1007B000DC030E94E303F7CC40FF0091050140FDFC
:1007C000009107010895E00F00E0F01F04910BB9BC
:1007D0000E948C03089500910001093021F00395D7
:1007E00000930001A9CC00270093000100910101B2
:1007F000053021F00395009301019ECC0027009362
:10080000010100910201093021F0039500930201DA
:1008100093CC00270093020100910301053021F0E1
:1008200003950093030188CC0027009303010091F6
:100830000501023041F000910401093061F0039597
:100840000093040179CC00910401033068F403950E
:100850000093040171CC002700930401009105016D
:1008600003950093050168CC0027009305010093D0
:100870000401009109010130A9F000910801013043
:10088000D1F0023011F10330B1F00430C9F005307D
:1008900091F00630A9F0073071F0083061F00930AE
:1008A00079F04ACC00910801003029F0013041F084
:1008B000023081F041CC009107010330B9F00EC045
:1008C000009107010330B9F009C00091070102301F
:1008D000B9F004C0009107010330B9F0009106019E
:1008E0000930D9F003950093060126CC009106014A
:1008F0000130E1F00EC0009106010030B9F009C0EE
:1009000000910601083091F004C000910601013009
:10091000C9F00395009306010FCC00270093060150
:100920000091070103950093070106CC01E00093B5
:100930000601002700930701009108010395009329
:100940000801FACB0027009309010093070101E099
:100950000093080100930601EFCB60910A0166BD88
:100960002395F39418955395543011F0A39418954A
:1009700050E0FCCF339B07C0329B30C0319B21C07D
:10098000309B07C018951395153009F0189511275D
:100990001895103049F0113071F0123029F01330F1
:1009A00051F0143041F018950D2D013009F01895D3
:1009B00001E0C02E189500910C01039500930C01E5
:1009C0001895113029F0133019F0143009F01895EA
:1009D00000910D01039500930D011895103049F019
:1009E000113069F0123029F0133049F0143039F029
:1009F00018959395923009F01895992718950091BC
:0A0A00000B01039500930B011895FC
:00000001FF
